{
  "contractName": "ZombieAttack",
  "abi": [
    {
      "anonymous": false,
      "inputs": [
        {
          "indexed": false,
          "internalType": "uint256",
          "name": "zombieId",
          "type": "uint256"
        },
        {
          "indexed": false,
          "internalType": "string",
          "name": "name",
          "type": "string"
        },
        {
          "indexed": false,
          "internalType": "uint256",
          "name": "dna",
          "type": "uint256"
        }
      ],
      "name": "NewZombie",
      "type": "event"
    },
    {
      "anonymous": false,
      "inputs": [
        {
          "indexed": true,
          "internalType": "address",
          "name": "previousOwner",
          "type": "address"
        },
        {
          "indexed": true,
          "internalType": "address",
          "name": "newOwner",
          "type": "address"
        }
      ],
      "name": "OwnershipTransferred",
      "type": "event"
    },
    {
      "inputs": [
        {
          "internalType": "uint256",
          "name": "_zombieId",
          "type": "uint256"
        },
        {
          "internalType": "uint256",
          "name": "_newDna",
          "type": "uint256"
        }
      ],
      "name": "changeDna",
      "outputs": [],
      "stateMutability": "nonpayable",
      "type": "function"
    },
    {
      "inputs": [
        {
          "internalType": "uint256",
          "name": "_zombieId",
          "type": "uint256"
        },
        {
          "internalType": "string",
          "name": "_newName",
          "type": "string"
        }
      ],
      "name": "changeName",
      "outputs": [],
      "stateMutability": "nonpayable",
      "type": "function"
    },
    {
      "inputs": [
        {
          "internalType": "string",
          "name": "_name",
          "type": "string"
        }
      ],
      "name": "createRandomZombie",
      "outputs": [],
      "stateMutability": "nonpayable",
      "type": "function"
    },
    {
      "inputs": [
        {
          "internalType": "uint256",
          "name": "_zombieId",
          "type": "uint256"
        },
        {
          "internalType": "uint256",
          "name": "_kittyId",
          "type": "uint256"
        }
      ],
      "name": "feedOnKitty",
      "outputs": [],
      "stateMutability": "nonpayable",
      "type": "function"
    },
    {
      "inputs": [
        {
          "internalType": "address",
          "name": "_owner",
          "type": "address"
        }
      ],
      "name": "getZombiesByOwner",
      "outputs": [
        {
          "internalType": "uint256[]",
          "name": "",
          "type": "uint256[]"
        }
      ],
      "stateMutability": "view",
      "type": "function"
    },
    {
      "inputs": [],
      "name": "isOwner",
      "outputs": [
        {
          "internalType": "bool",
          "name": "",
          "type": "bool"
        }
      ],
      "stateMutability": "view",
      "type": "function"
    },
    {
      "inputs": [
        {
          "internalType": "uint256",
          "name": "_zombieId",
          "type": "uint256"
        }
      ],
      "name": "levelUp",
      "outputs": [],
      "stateMutability": "payable",
      "type": "function"
    },
    {
      "inputs": [],
      "name": "owner",
      "outputs": [
        {
          "internalType": "address",
          "name": "",
          "type": "address"
        }
      ],
      "stateMutability": "view",
      "type": "function"
    },
    {
      "inputs": [],
      "name": "renounceOwnership",
      "outputs": [],
      "stateMutability": "nonpayable",
      "type": "function"
    },
    {
      "inputs": [
        {
          "internalType": "address",
          "name": "_address",
          "type": "address"
        }
      ],
      "name": "setKittyContractAddress",
      "outputs": [],
      "stateMutability": "nonpayable",
      "type": "function"
    },
    {
      "inputs": [
        {
          "internalType": "uint256",
          "name": "_fee",
          "type": "uint256"
        }
      ],
      "name": "setLevelUpFee",
      "outputs": [],
      "stateMutability": "nonpayable",
      "type": "function"
    },
    {
      "inputs": [
        {
          "internalType": "address",
          "name": "newOwner",
          "type": "address"
        }
      ],
      "name": "transferOwnership",
      "outputs": [],
      "stateMutability": "nonpayable",
      "type": "function"
    },
    {
      "inputs": [],
      "name": "withdraw",
      "outputs": [],
      "stateMutability": "nonpayable",
      "type": "function"
    },
    {
      "inputs": [
        {
          "internalType": "uint256",
          "name": "",
          "type": "uint256"
        }
      ],
      "name": "zombieToOwner",
      "outputs": [
        {
          "internalType": "address",
          "name": "",
          "type": "address"
        }
      ],
      "stateMutability": "view",
      "type": "function"
    },
    {
      "inputs": [
        {
          "internalType": "uint256",
          "name": "",
          "type": "uint256"
        }
      ],
      "name": "zombies",
      "outputs": [
        {
          "internalType": "string",
          "name": "name",
          "type": "string"
        },
        {
          "internalType": "uint256",
          "name": "dna",
          "type": "uint256"
        },
        {
          "internalType": "uint32",
          "name": "level",
          "type": "uint32"
        },
        {
          "internalType": "uint32",
          "name": "readyTime",
          "type": "uint32"
        },
        {
          "internalType": "uint16",
          "name": "winCount",
          "type": "uint16"
        },
        {
          "internalType": "uint16",
          "name": "lossCount",
          "type": "uint16"
        }
      ],
      "stateMutability": "view",
      "type": "function"
    },
    {
      "inputs": [
        {
          "internalType": "uint256",
          "name": "_zombieId",
          "type": "uint256"
        },
        {
          "internalType": "uint256",
          "name": "_targetId",
          "type": "uint256"
        }
      ],
      "name": "attack",
      "outputs": [],
      "stateMutability": "nonpayable",
      "type": "function"
    }
  ],
  "bytecode": "0x6080604052601060018190556200001890600a620001bb565b6002556201518060035566038d7ea4c6800060085560006009556046600a553480156200004457600080fd5b5060008054600160a060020a0319163390811782556040519091907f8be0079c531659141344cd1fd0a4f28419497f9722a3daafe3b4186f6b6457e0908290a3620001d0565b7f4e487b7100000000000000000000000000000000000000000000000000000000600052601160045260246000fd5b600181815b80851115620000fc578160001904821115620000de57620000de6200008a565b80851615620000ec57918102915b60029094049390800290620000be565b509250929050565b6000826200011557506001620001b5565b816200012457506000620001b5565b81600181146200013d5760028114620001485762000169565b6001915050620001b5565b60ff8411156200015c576200015c6200008a565b8360020a915050620001b5565b5060208310610133831016604e8410600b84101617156200018e575081810a620001b5565b6200019a8383620000b9565b8060001904821115620001b157620001b16200008a565b0290505b92915050565b6000620001c9838362000104565b9392505050565b61173e80620001e06000396000f3fe608060405260043610610110576000357c010000000000000000000000000000000000000000000000000000000090048063715018a6116100a7578063c39cbef111610076578063c39cbef1146102d3578063ccf670f8146102f3578063e1fa763814610313578063f2fde38b1461033357600080fd5b8063715018a6146102555780637bff0a011461026a5780638da5cb5b1461028a5780638f32d59b146102a857600080fd5b80634412e104116100e35780634412e1041461019a578063528b7b8f146101c75780635f4623f1146102155780635faf28801461023557600080fd5b80630ce90ec21461011557806317a7f4cc1461012a5780632052465e1461014a5780633ccfd60b14610185575b600080fd5b610128610123366004611069565b610353565b005b34801561013657600080fd5b50610128610145366004611082565b610400565b34801561015657600080fd5b5061016a610165366004611069565b6104dc565b60405161017c969594939291906110f4565b60405180910390f35b34801561019157600080fd5b506101286105d2565b3480156101a657600080fd5b506101ba6101b536600461113f565b610633565b60405161017c9190611168565b3480156101d357600080fd5b506101fd6101e2366004611069565b600560205260009081526040902054600160a060020a031681565b604051600160a060020a03909116815260200161017c565b34801561022157600080fd5b5061012861023036600461113f565b61070a565b34801561024157600080fd5b50610128610250366004611082565b610750565b34801561026157600080fd5b506101286107e1565b34801561027657600080fd5b506101286102853660046111c5565b61084f565b34801561029657600080fd5b50600054600160a060020a03166101fd565b3480156102b457600080fd5b50600054600160a060020a03163314604051901515815260200161017c565b3480156102df57600080fd5b506101286102ee366004611276565b610897565b3480156102ff57600080fd5b5061012861030e366004611069565b610934565b34801561031f57600080fd5b5061012861032e366004611082565b610950565b34801561033f57600080fd5b5061012861034e36600461113f565b610b64565b600854341461036157600080fd5b600160048281548110610376576103766112f2565b600091825260208220600260039092020101805490919061039e90849063ffffffff16611324565b92506101000a81548163ffffffff021916908363ffffffff1602179055600482815481106103ce576103ce6112f2565b906000526020600020906003020160020160006101000a81548163ffffffff021916908363ffffffff16021790555050565b6007546040517fe98b7f4d00000000000000000000000000000000000000000000000000000000815260048101839052600091600160a060020a03169063e98b7f4d9060240161014060405180830381865afa158015610464573d6000803e3d6000fd5b505050506040513d601f19601f82011682018060405250810190610488919061135d565b60408051808201909152600581527f6b697474790000000000000000000000000000000000000000000000000000006020820152909a506104d799508c98508a97509550610b87945050505050565b505050565b600481815481106104ec57600080fd5b906000526020600020906003020160009150905080600001805461050f906113df565b80601f016020809104026020016040519081016040528092919081815260200182805461053b906113df565b80156105885780601f1061055d57610100808354040283529160200191610588565b820191906000526020600020905b81548152906001019060200180831161056b57829003601f168201915b505050600184015460029094015492939263ffffffff8082169350640100000000820416915061ffff6801000000000000000082048116916a010000000000000000000090041686565b600054600160a060020a031633146105e957600080fd5b60008054600160a060020a0316604051909150600160a060020a03821690303180156108fc02916000818181858888f1935050505015801561062f573d6000803e3d6000fd5b5050565b600160a060020a0381166000908152600660205260408120546060919067ffffffffffffffff811115610668576106686111ac565b604051908082528060200260200182016040528015610691578160200160208202803683370190505b5090506000805b60045481101561070157600081815260056020526040902054600160a060020a038087169116036106ef57808383815181106106d6576106d66112f2565b6020908102919091010152816106eb8161141c565b9250505b806106f98161141c565b915050610698565b50909392505050565b600054600160a060020a0316331461072157600080fd5b6007805473ffffffffffffffffffffffffffffffffffffffff1916600160a060020a0392909216919091179055565b6014828160048281548110610767576107676112f2565b600091825260209091206002600390920201015463ffffffff16101561078c57600080fd5b6000848152600560205260409020548490600160a060020a031633146107b157600080fd5b83600486815481106107c5576107c56112f2565b9060005260206000209060030201600101819055505050505050565b600054600160a060020a031633146107f857600080fd5b60008054604051600160a060020a03909116907f8be0079c531659141344cd1fd0a4f28419497f9722a3daafe3b4186f6b6457e0908390a36000805473ffffffffffffffffffffffffffffffffffffffff19169055565b336000908152600660205260409020541561086957600080fd5b600061087482610d03565b905061088160648261144e565b61088b9082611462565b905061062f8282610d46565b60028381600482815481106108ae576108ae6112f2565b600091825260209091206002600390920201015463ffffffff1610156108d357600080fd5b6000858152600560205260409020548590600160a060020a031633146108f857600080fd5b84846004888154811061090d5761090d6112f2565b9060005260206000209060030201600001918261092b9291906114bb565b50505050505050565b600054600160a060020a0316331461094b57600080fd5b600855565b6000828152600560205260409020548290600160a060020a0316331461097557600080fd5b60006004848154811061098a5761098a6112f2565b906000526020600020906003020190506000600484815481106109af576109af6112f2565b9060005260206000209060030201905060006109cb6064610f27565b9050600a548111610ad75760028301805468010000000000000000900461ffff169060086109f883611583565b825461ffff9182166101009390930a92830291909202199091161790555060028301805463ffffffff16906000610a2e836115a4565b825463ffffffff9182166101009390930a92830291909202199091161790555060028201805461ffff6a01000000000000000000009091041690600a610a7383611583565b91906101000a81548161ffff021916908361ffff16021790555050610ad28683600101546040518060400160405280600681526020017f7a6f6d6269650000000000000000000000000000000000000000000000000000815250610b87565b610b5c565b6002830180546a0100000000000000000000900461ffff1690600a610afb83611583565b91906101000a81548161ffff021916908361ffff1602179055505081600201600881819054906101000a900461ffff1680929190610b3890611583565b91906101000a81548161ffff021916908361ffff16021790555050610b5c83610f9d565b505050505050565b600054600160a060020a03163314610b7b57600080fd5b610b8481610fcf565b50565b6000838152600560205260409020548390600160a060020a03163314610bac57600080fd5b600060048581548110610bc157610bc16112f2565b90600052602060002090600302019050610bf181600201544263ffffffff64010000000090920491909116111590565b610bfa57600080fd5b600254610c07908561144e565b935060006002858360010154610c1d91906115bd565b610c2791906115d0565b6040517f6b6974747900000000000000000000000000000000000000000000000000000060208201529091506025016040516020818303038152906040528051906020012084604051602001610c7d91906115e4565b6040516020818303038152906040528051906020012003610cbb57610ca360648261144e565b610cad9082611462565b610cb89060636115bd565b90505b610cfa6040518060400160405280600681526020017f4e6f4e616d65000000000000000000000000000000000000000000000000000081525082610d46565b610b5c82610f9d565b60008082604051602001610d1791906115e4565b60408051601f198184030181529190528051602090910120600254909150610d3f908261144e565b9392505050565b60006040518060c00160405280848152602001838152602001600163ffffffff16815260200160035442610d7a91906115bd565b63ffffffff16815260006020820181905260409091018190526004805460018101825591528151919250829160039091027f8a35acfbc15ff81a39ae7d344fd709f28e8600b4aa8c65c6b64bfe7fe36bd19b01908190610dda9082611600565b5060208201516001808301919091556040830151600290920180546060850151608086015160a09096015161ffff9081166a0100000000000000000000026bffff0000000000000000000019919097166801000000000000000002166bffffffff00000000000000001963ffffffff9283166401000000000267ffffffffffffffff199094169290961691909117919091179390931692909217929092179055600454600091610e8991611462565b6000818152600560209081526040808320805473ffffffffffffffffffffffffffffffffffffffff19163390811790915583526006909152902054909150610ed290600161104a565b336000908152600660205260409081902091909155517f88f026aacbbecc90c18411df4b1185fd8d9be2470f1962f192bf84a27d0704b790610f19908390879087906116c6565b60405180910390a150505050565b6000600160096000828254610f3c91906115bd565b91829055506009819055604080514260208201526c01000000000000000000000000330291810191909152605481019190915283915060740160408051601f198184030181529190528051602090910120610f97919061144e565b92915050565b600354610faa90426115bd565b8160020160046101000a81548163ffffffff021916908363ffffffff16021790555050565b600160a060020a038116610fe257600080fd5b60008054604051600160a060020a03808516939216917f8be0079c531659141344cd1fd0a4f28419497f9722a3daafe3b4186f6b6457e091a36000805473ffffffffffffffffffffffffffffffffffffffff1916600160a060020a0392909216919091179055565b60008061105783856115bd565b905083811015610d3f57610d3f6116ef565b60006020828403121561107b57600080fd5b5035919050565b6000806040838503121561109557600080fd5b50508035926020909101359150565b60005b838110156110bf5781810151838201526020016110a7565b50506000910152565b600081518084526110e08160208601602086016110a4565b601f01601f19169290920160200192915050565b60c08152600061110760c08301896110c8565b60208301979097525063ffffffff948516604082015292909316606083015261ffff908116608083015290911660a090910152919050565b60006020828403121561115157600080fd5b8135600160a060020a0381168114610d3f57600080fd5b6020808252825182820181905260009190848201906040850190845b818110156111a057835183529284019291840191600101611184565b50909695505050505050565b60e060020a634e487b7102600052604160045260246000fd5b6000602082840312156111d757600080fd5b813567ffffffffffffffff808211156111ef57600080fd5b818401915084601f83011261120357600080fd5b813581811115611215576112156111ac565b604051601f8201601f19908116603f0116810190838211818310171561123d5761123d6111ac565b8160405282815287602084870101111561125657600080fd5b826020860160208301376000928101602001929092525095945050505050565b60008060006040848603121561128b57600080fd5b83359250602084013567ffffffffffffffff808211156112aa57600080fd5b818601915086601f8301126112be57600080fd5b8135818111156112cd57600080fd5b8760208285010111156112df57600080fd5b6020830194508093505050509250925092565b60e060020a634e487b7102600052603260045260246000fd5b60e060020a634e487b7102600052601160045260246000fd5b63ffffffff8181168382160190808211156113415761134161130b565b5092915050565b8051801515811461135857600080fd5b919050565b6000806000806000806000806000806101408b8d03121561137d57600080fd5b6113868b611348565b995061139460208c01611348565b985060408b0151975060608b0151965060808b0151955060a08b0151945060c08b0151935060e08b015192506101008b015191506101208b015190509295989b9194979a5092959850565b6002810460018216806113f357607f821691505b6020821081036114165760e060020a634e487b7102600052602260045260246000fd5b50919050565b60006001820161142e5761142e61130b565b5060010190565b60e060020a634e487b7102600052601260045260246000fd5b60008261145d5761145d611435565b500690565b81810381811115610f9757610f9761130b565b601f8211156104d7576000818152602081206020601f8601048101602086101561149c5750805b6020601f860104820191505b81811015610b5c578281556001016114a8565b67ffffffffffffffff8311156114d3576114d36111ac565b6114e7836114e183546113df565b83611475565b6000601f84116001811461151f57600085156115035750838201355b60028087026008880290910a600019041982161784555061157c565b600083815260209020601f19861690835b828110156115505786850135825560209485019460019092019101611530565b508682101561157057858401356008601f89160260020a60001904191681555b50506001600286020183555b5050505050565b600061ffff80831681810361159a5761159a61130b565b6001019392505050565b600063ffffffff80831681810361159a5761159a61130b565b80820180821115610f9757610f9761130b565b6000826115df576115df611435565b500490565b600082516115f68184602087016110a4565b9190910192915050565b815167ffffffffffffffff81111561161a5761161a6111ac565b61162e8161162884546113df565b84611475565b602080601f831160018114611667576000841561164b5750858301515b60028086026008870290910a6000190419821617865550610b5c565b600085815260208120601f198616915b8281101561169657888601518255948401946001909101908401611677565b50858210156116b657878501516008601f88160260020a60001904191681555b5050505050600202600101905550565b8381526060602082015260006116df60608301856110c8565b9050826040830152949350505050565b60e060020a634e487b7102600052600160045260246000fdfea2646970667358221220483a91b9f81f5d8129e07392c288b64b283cd116058eb85c0c8e9223ad1c13a264736f6c63430008150033",
  "immutableReferences": {},
  "source": "// SPDX-License-Identifier: Unlicense\r\npragma solidity >=0.8.19;\r\n\r\nimport \"./zombiehelper.sol\";\r\nimport \"./safemath.sol\";\r\ncontract ZombieAttack is ZombieHelper {\r\n  using SafeMath for uint;\r\n  uint randNonce = 0;\r\n  uint attackVictoryProbability = 70;\r\n\r\n  function randMod(uint _modulus) internal returns(uint) {\r\n    randNonce = randNonce += 1;\r\n    return uint(keccak256(abi.encodePacked(block.timestamp, msg.sender, randNonce))) % _modulus;\r\n  }\r\n\r\n  function attack(uint _zombieId, uint _targetId) external onlyOwnerOf(_zombieId) {\r\n    Zombie storage myZombie = zombies[_zombieId];\r\n    Zombie storage enemyZombie = zombies[_targetId];\r\n    uint rand = randMod(100);\r\n    if (rand <= attackVictoryProbability) {\r\n      myZombie.winCount++;\r\n      myZombie.level++;\r\n      enemyZombie.lossCount++;\r\n      feedAndMultiply(_zombieId, enemyZombie.dna, \"zombie\");\r\n    } else {\r\n      myZombie.lossCount++;\r\n      enemyZombie.winCount++;\r\n      _triggerCooldown(myZombie);\r\n    }\r\n  }\r\n}\r\n",
  "sourcePath": "C:\\Users\\Shiki\\Desktop\\Etherum learning\\truffle\\zombies\\contracts\\zombieattack.sol",
  "compiler": {
    "name": "solc",
    "version": "0.8.21+commit.d9974bed.Emscripten.clang"
  },
  "schemaVersion": "3.4.16",
  "updatedAt": "2024-01-03T09:30:25.300Z",
  "devdoc": {
    "kind": "dev",
    "methods": {
      "isOwner()": {
        "returns": {
          "_0": "true if `msg.sender` is the owner of the contract."
        }
      },
      "owner()": {
        "returns": {
          "_0": "the address of the owner."
        }
      },
      "renounceOwnership()": {
        "details": "Allows the current owner to relinquish control of the contract."
      },
      "transferOwnership(address)": {
        "details": "Allows the current owner to transfer control of the contract to a newOwner.",
        "params": {
          "newOwner": "The address to transfer ownership to."
        }
      }
    },
    "version": 1
  },
  "userdoc": {
    "kind": "user",
    "methods": {
      "renounceOwnership()": {
        "notice": "Renouncing to ownership will leave the contract without an owner. It will not be possible to call the functions with the `onlyOwner` modifier anymore."
      }
    },
    "version": 1
  }
}